{
  "contractName": "Voting",
  "abi": [
    {
      "constant": true,
      "inputs": [],
      "name": "proposalId",
      "outputs": [
        {
          "name": "",
          "type": "uint256"
        }
      ],
      "payable": false,
      "stateMutability": "view",
      "type": "function",
      "signature": "0x2dfca445"
    },
    {
      "anonymous": false,
      "inputs": [
        {
          "indexed": false,
          "name": "proposalName",
          "type": "string"
        },
        {
          "indexed": false,
          "name": "user",
          "type": "address"
        },
        {
          "indexed": false,
          "name": "positiveVotes",
          "type": "uint256"
        },
        {
          "indexed": false,
          "name": "negativeVotes",
          "type": "uint256"
        }
      ],
      "name": "Voted",
      "type": "event",
      "signature": "0xfd327cd78ce36f774fd1f80a272fba6f42ce45bc686a5b71fc080bdb66426f1e"
    },
    {
      "anonymous": false,
      "inputs": [
        {
          "indexed": false,
          "name": "name",
          "type": "string"
        },
        {
          "indexed": false,
          "name": "user",
          "type": "address"
        }
      ],
      "name": "NewProposal",
      "type": "event",
      "signature": "0x6c1a5226613000c6218baf6ab7538a03f4283f17a4f02de86c1ede19fa5f7f0d"
    },
    {
      "constant": false,
      "inputs": [
        {
          "name": "_name",
          "type": "string"
        },
        {
          "name": "_desc",
          "type": "string"
        }
      ],
      "name": "newProposal",
      "outputs": [],
      "payable": false,
      "stateMutability": "nonpayable",
      "type": "function",
      "signature": "0xf5cbc8e4"
    },
    {
      "constant": true,
      "inputs": [
        {
          "name": "_proposalId",
          "type": "uint256"
        }
      ],
      "name": "getProposal",
      "outputs": [
        {
          "name": "",
          "type": "string"
        },
        {
          "name": "",
          "type": "string"
        },
        {
          "name": "",
          "type": "uint256"
        },
        {
          "name": "",
          "type": "uint256"
        },
        {
          "name": "",
          "type": "address[]"
        },
        {
          "name": "",
          "type": "address"
        }
      ],
      "payable": false,
      "stateMutability": "view",
      "type": "function",
      "signature": "0xc7f758a8"
    },
    {
      "constant": true,
      "inputs": [],
      "name": "getAllProposals",
      "outputs": [
        {
          "name": "",
          "type": "uint256[]"
        }
      ],
      "payable": false,
      "stateMutability": "view",
      "type": "function",
      "signature": "0xcceb68f5"
    },
    {
      "constant": false,
      "inputs": [
        {
          "name": "_proposalId",
          "type": "uint256"
        }
      ],
      "name": "votePositive",
      "outputs": [],
      "payable": false,
      "stateMutability": "nonpayable",
      "type": "function",
      "signature": "0xe5f74c25"
    },
    {
      "constant": false,
      "inputs": [
        {
          "name": "_proposalId",
          "type": "uint256"
        }
      ],
      "name": "voteNegative",
      "outputs": [],
      "payable": false,
      "stateMutability": "nonpayable",
      "type": "function",
      "signature": "0x548f72c8"
    }
  ],
  "bytecode": "0x6080604052600060015534801561001557600080fd5b5061110a806100256000396000f3fe608060405260043610610078576000357c0100000000000000000000000000000000000000000000000000000000900463ffffffff1680632dfca4451461007d578063548f72c8146100a8578063c7f758a8146100e3578063cceb68f51461028c578063e5f74c25146102f8578063f5cbc8e414610333575b600080fd5b34801561008957600080fd5b50610092610492565b6040518082815260200191505060405180910390f35b3480156100b457600080fd5b506100e1600480360360208110156100cb57600080fd5b8101908080359060200190929190505050610498565b005b3480156100ef57600080fd5b5061011c6004803603602081101561010657600080fd5b8101908080359060200190929190505050610719565b604051808060200180602001878152602001868152602001806020018573ffffffffffffffffffffffffffffffffffffffff1673ffffffffffffffffffffffffffffffffffffffff16815260200184810384528a818151815260200191508051906020019080838360005b838110156101a2578082015181840152602081019050610187565b50505050905090810190601f1680156101cf5780820380516001836020036101000a031916815260200191505b50848103835289818151815260200191508051906020019080838360005b838110156102085780820151818401526020810190506101ed565b50505050905090810190601f1680156102355780820380516001836020036101000a031916815260200191505b50848103825286818151815260200191508051906020019060200280838360005b83811015610271578082015181840152602081019050610256565b50505050905001995050505050505050505060405180910390f35b34801561029857600080fd5b506102a1610999565b6040518080602001828103825283818151815260200191508051906020019060200280838360005b838110156102e45780820151818401526020810190506102c9565b505050509050019250505060405180910390f35b34801561030457600080fd5b506103316004803603602081101561031b57600080fd5b81019080803590602001909291905050506109f1565b005b34801561033f57600080fd5b506104906004803603604081101561035657600080fd5b810190808035906020019064010000000081111561037357600080fd5b82018360208201111561038557600080fd5b803590602001918460018302840111640100000000831117156103a757600080fd5b91908080601f016020809104026020016040519081016040528093929190818152602001838380828437600081840152601f19601f8201169050808301925050505050505091929192908035906020019064010000000081111561040a57600080fd5b82018360208201111561041c57600080fd5b8035906020019184600183028401116401000000008311171561043e57600080fd5b91908080601f016020809104026020016040519081016040528093929190818152602001838380828437600081840152601f19601f820116905080830192505050505050509192919290505050610c72565b005b60015481565b6104a23382610f1a565b15151561053d576040517f08c379a00000000000000000000000000000000000000000000000000000000081526004018080602001828103825260248152602001807f5573657220616c726561647920766f74656420666f7220746869732070726f7081526020017f6f73616c0000000000000000000000000000000000000000000000000000000081525060400191505060405180910390fd5b600080828152602001908152602001600020600301600081548092919060010191905055506000808281526020019081526020016000206004013390806001815401808255809150509060018203906000526020600020016000909192909190916101000a81548173ffffffffffffffffffffffffffffffffffffffff021916908373ffffffffffffffffffffffffffffffffffffffff160217905550507ffd327cd78ce36f774fd1f80a272fba6f42ce45bc686a5b71fc080bdb66426f1e60008083815260200190815260200160002060000133600080858152602001908152602001600020600201546000808681526020019081526020016000206003015460405180806020018573ffffffffffffffffffffffffffffffffffffffff1673ffffffffffffffffffffffffffffffffffffffff1681526020018481526020018381526020018281038252868181546001816001161561010002031660029004815260200191508054600181600116156101000203166002900480156107055780601f106106da57610100808354040283529160200191610705565b820191906000526020600020905b8154815290600101906020018083116106e857829003601f168201915b50509550505050505060405180910390a150565b606080600080606060008060008881526020019081526020016000206000016000808981526020019081526020016000206001016000808a8152602001908152602001600020600201546000808b8152602001908152602001600020600301546000808c81526020019081526020016000206004016000808d815260200190815260200160002060050160009054906101000a900473ffffffffffffffffffffffffffffffffffffffff16858054600181600116156101000203166002900480601f0160208091040260200160405190810160405280929190818152602001828054600181600116156101000203166002900480156108595780601f1061082e57610100808354040283529160200191610859565b820191906000526020600020905b81548152906001019060200180831161083c57829003601f168201915b50505050509550848054600181600116156101000203166002900480601f0160208091040260200160405190810160405280929190818152602001828054600181600116156101000203166002900480156108f55780601f106108ca576101008083540402835291602001916108f5565b820191906000526020600020905b8154815290600101906020018083116108d857829003601f168201915b505050505094508180548060200260200160405190810160405280929190818152602001828054801561097d57602002820191906000526020600020905b8160009054906101000a900473ffffffffffffffffffffffffffffffffffffffff1673ffffffffffffffffffffffffffffffffffffffff1681526020019060010190808311610933575b5050505050915095509550955095509550955091939550919395565b606060028054806020026020016040519081016040528092919081815260200182805480156109e757602002820191906000526020600020905b8154815260200190600101908083116109d3575b5050505050905090565b6109fb3382610f1a565b151515610a96576040517f08c379a00000000000000000000000000000000000000000000000000000000081526004018080602001828103825260248152602001807f5573657220616c726561647920766f74656420666f7220746869732070726f7081526020017f6f73616c0000000000000000000000000000000000000000000000000000000081525060400191505060405180910390fd5b600080828152602001908152602001600020600201600081548092919060010191905055506000808281526020019081526020016000206004013390806001815401808255809150509060018203906000526020600020016000909192909190916101000a81548173ffffffffffffffffffffffffffffffffffffffff021916908373ffffffffffffffffffffffffffffffffffffffff160217905550507ffd327cd78ce36f774fd1f80a272fba6f42ce45bc686a5b71fc080bdb66426f1e60008083815260200190815260200160002060000133600080858152602001908152602001600020600201546000808681526020019081526020016000206003015460405180806020018573ffffffffffffffffffffffffffffffffffffffff1673ffffffffffffffffffffffffffffffffffffffff168152602001848152602001838152602001828103825286818154600181600116156101000203166002900481526020019150805460018160011615610100020316600290048015610c5e5780601f10610c3357610100808354040283529160200191610c5e565b820191906000526020600020905b815481529060010190602001808311610c4157829003601f168201915b50509550505050505060405180910390a150565b60008251111515610ceb576040517f08c379a00000000000000000000000000000000000000000000000000000000081526004018080602001828103825260148152602001807f4e616d652063616e6e6f7420626520656d70747900000000000000000000000081525060200191505060405180910390fd5b60008151111515610d64576040517f08c379a000000000000000000000000000000000000000000000000000000000815260040180806020018281038252601b8152602001807f4465736372697074696f6e2063616e6e6f7420626520656d707479000000000081525060200191505060405180910390fd5b60008060006001548152602001908152602001600020905082816000019080519060200190610d94929190611039565b5081816001019080519060200190610dad929190611039565b506000816002018190555060008160030181905550338160050160006101000a81548173ffffffffffffffffffffffffffffffffffffffff021916908373ffffffffffffffffffffffffffffffffffffffff160217905550600260015490806001815401808255809150509060018203906000526020600020016000909192909190915055506001600081548092919060010191905055507f6c1a5226613000c6218baf6ab7538a03f4283f17a4f02de86c1ede19fa5f7f0d833360405180806020018373ffffffffffffffffffffffffffffffffffffffff1673ffffffffffffffffffffffffffffffffffffffff168152602001828103825284818151815260200191508051906020019080838360005b83811015610eda578082015181840152602081019050610ebf565b50505050905090810190601f168015610f075780820380516001836020036101000a031916815260200191505b50935050505060405180910390a1505050565b60006060600080848152602001908152602001600020600401805480602002602001604051908101604052809291908181526020018280548015610fb357602002820191906000526020600020905b8160009054906101000a900473ffffffffffffffffffffffffffffffffffffffff1673ffffffffffffffffffffffffffffffffffffffff1681526020019060010190808311610f69575b5050505050905060008090505b815181101561102c578473ffffffffffffffffffffffffffffffffffffffff168282815181101515610fee57fe5b9060200190602002015173ffffffffffffffffffffffffffffffffffffffff16141561101f57600192505050611033565b8080600101915050610fc0565b5060009150505b92915050565b828054600181600116156101000203166002900490600052602060002090601f016020900481019282601f1061107a57805160ff19168380011785556110a8565b828001600101855582156110a8579182015b828111156110a757825182559160200191906001019061108c565b5b5090506110b591906110b9565b5090565b6110db91905b808211156110d75760008160009055506001016110bf565b5090565b9056fea165627a7a723058205cf6793780bed6be3e544ec0fe9427bb2a608cf5d412a3a5336294ed75b6b6860029",
  "source": "pragma solidity ^0.5.0;\n\ncontract Voting {\n    \n    event Voted(string proposalName, address user, uint positiveVotes, uint negativeVotes);\n    event NewProposal(string name, address user);\n    \n    mapping (uint => Proposal) proposalObj;\n    uint public proposalId = 0;\n    uint[] proposals;\n    \n    struct Proposal {\n        string name;\n        string desc;\n        uint positiveVotes;\n        uint negativeVotes;\n        address[] voters;\n        address proposer;\n    }\n    \n    function newProposal(string memory _name, string memory _desc) public {\n        \n        require(bytes(_name).length > 0, \"Name cannot be empty\");\n        require(bytes(_desc).length > 0, \"Description cannot be empty\");\n        \n        Proposal storage prop = proposalObj[proposalId];\n        prop.name = _name;\n        prop.desc = _desc;\n        prop.positiveVotes = 0;\n        prop.negativeVotes = 0;\n        prop.proposer = msg.sender;\n        proposals.push(proposalId);\n        proposalId++;\n        emit NewProposal(_name, msg.sender);\n    }\n    \n    function getProposal(uint _proposalId) public view\n        returns(\n            string memory, \n            string memory, \n            uint, \n            uint, \n            address[] memory, \n            address\n        ) {\n \n            return (\n                proposalObj[_proposalId].name,\n                proposalObj[_proposalId].desc,\n                proposalObj[_proposalId].positiveVotes,\n                proposalObj[_proposalId].negativeVotes,\n                proposalObj[_proposalId].voters,\n                proposalObj[_proposalId].proposer\n            );\n    }\n    \n    function getAllProposals() public view returns(uint[] memory) {\n        return proposals;\n    }\n    \n    function votePositive(uint _proposalId) public {\n        \n        require(!checkAlreadyVoted(msg.sender, _proposalId), \"User already voted for this proposal\");\n        \n        proposalObj[_proposalId].positiveVotes++;\n        proposalObj[_proposalId].voters.push(msg.sender);\n        emit Voted(\n            proposalObj[_proposalId].name, \n            msg.sender,\n            proposalObj[_proposalId].positiveVotes,\n            proposalObj[_proposalId].negativeVotes\n        );\n    }\n    \n    function voteNegative(uint _proposalId) public {\n        \n        require(!checkAlreadyVoted(msg.sender, _proposalId), \"User already voted for this proposal\");\n        \n        proposalObj[_proposalId].negativeVotes++;\n        proposalObj[_proposalId].voters.push(msg.sender);\n        emit Voted(\n            proposalObj[_proposalId].name, \n            msg.sender,\n            proposalObj[_proposalId].positiveVotes,\n            proposalObj[_proposalId].negativeVotes\n        );\n    }\n \n    function checkAlreadyVoted(address voterAddress, uint _proposalId) internal view returns(bool) {\n \n        address[] memory voters = proposalObj[_proposalId].voters;\n \n        for (uint i = 0; i < voters.length; i++) {\n            if (voters[i] == voterAddress)\n                return true;\n        }\n \n        return false;\n    }\n}",
  "sourcePath": "C:/Users/lucas/Documents/dev/votingdapp/contracts/Voting.sol",
  "compiler": {
    "name": "solc",
    "version": "0.5.0+commit.1d4f565a.Emscripten.clang"
  },
  "schemaVersion": "3.0.1",
  "updatedAt": "2019-01-26T12:48:41.280Z",
  "devdoc": {
    "methods": {}
  },
  "userdoc": {
    "methods": {}
  }
}