{
  "contractName": "Voting",
  "abi": [
    {
      "anonymous": false,
      "inputs": [
        {
          "indexed": false,
          "name": "proposalName",
          "type": "string"
        },
        {
          "indexed": false,
          "name": "user",
          "type": "address"
        },
        {
          "indexed": false,
          "name": "positiveVotes",
          "type": "uint256"
        },
        {
          "indexed": false,
          "name": "negativeVotes",
          "type": "uint256"
        }
      ],
      "name": "Voted",
      "type": "event",
      "signature": "0xfd327cd78ce36f774fd1f80a272fba6f42ce45bc686a5b71fc080bdb66426f1e"
    },
    {
      "anonymous": false,
      "inputs": [
        {
          "indexed": false,
          "name": "name",
          "type": "string"
        },
        {
          "indexed": false,
          "name": "user",
          "type": "address"
        }
      ],
      "name": "NewProposal",
      "type": "event",
      "signature": "0x6c1a5226613000c6218baf6ab7538a03f4283f17a4f02de86c1ede19fa5f7f0d"
    },
    {
      "constant": false,
      "inputs": [
        {
          "name": "_name",
          "type": "string"
        },
        {
          "name": "_desc",
          "type": "string"
        }
      ],
      "name": "newProposal",
      "outputs": [],
      "payable": false,
      "stateMutability": "nonpayable",
      "type": "function",
      "signature": "0xf5cbc8e4"
    },
    {
      "constant": true,
      "inputs": [
        {
          "name": "_proposalId",
          "type": "uint256"
        }
      ],
      "name": "getProposal",
      "outputs": [
        {
          "name": "",
          "type": "string"
        },
        {
          "name": "",
          "type": "string"
        },
        {
          "name": "",
          "type": "uint256"
        },
        {
          "name": "",
          "type": "uint256"
        },
        {
          "name": "",
          "type": "address[]"
        },
        {
          "name": "",
          "type": "address"
        }
      ],
      "payable": false,
      "stateMutability": "view",
      "type": "function",
      "signature": "0xc7f758a8"
    },
    {
      "constant": true,
      "inputs": [],
      "name": "getAllProposals",
      "outputs": [
        {
          "name": "",
          "type": "uint256[]"
        }
      ],
      "payable": false,
      "stateMutability": "view",
      "type": "function",
      "signature": "0xcceb68f5"
    },
    {
      "constant": false,
      "inputs": [
        {
          "name": "_proposalId",
          "type": "uint256"
        }
      ],
      "name": "votePositive",
      "outputs": [],
      "payable": false,
      "stateMutability": "nonpayable",
      "type": "function",
      "signature": "0xe5f74c25"
    },
    {
      "constant": false,
      "inputs": [
        {
          "name": "_proposalId",
          "type": "uint256"
        }
      ],
      "name": "voteNegative",
      "outputs": [],
      "payable": false,
      "stateMutability": "nonpayable",
      "type": "function",
      "signature": "0x548f72c8"
    }
  ],
  "bytecode": "0x6080604052600060015534801561001557600080fd5b50610ffe806100256000396000f3fe60806040526004361061006d576000357c0100000000000000000000000000000000000000000000000000000000900463ffffffff168063548f72c814610072578063c7f758a8146100ad578063cceb68f514610256578063e5f74c25146102c2578063f5cbc8e4146102fd575b600080fd5b34801561007e57600080fd5b506100ab6004803603602081101561009557600080fd5b810190808035906020019092919050505061045c565b005b3480156100b957600080fd5b506100e6600480360360208110156100d057600080fd5b81019080803590602001909291905050506106dd565b604051808060200180602001878152602001868152602001806020018573ffffffffffffffffffffffffffffffffffffffff1673ffffffffffffffffffffffffffffffffffffffff16815260200184810384528a818151815260200191508051906020019080838360005b8381101561016c578082015181840152602081019050610151565b50505050905090810190601f1680156101995780820380516001836020036101000a031916815260200191505b50848103835289818151815260200191508051906020019080838360005b838110156101d25780820151818401526020810190506101b7565b50505050905090810190601f1680156101ff5780820380516001836020036101000a031916815260200191505b50848103825286818151815260200191508051906020019060200280838360005b8381101561023b578082015181840152602081019050610220565b50505050905001995050505050505050505060405180910390f35b34801561026257600080fd5b5061026b61095d565b6040518080602001828103825283818151815260200191508051906020019060200280838360005b838110156102ae578082015181840152602081019050610293565b505050509050019250505060405180910390f35b3480156102ce57600080fd5b506102fb600480360360208110156102e557600080fd5b81019080803590602001909291905050506109b5565b005b34801561030957600080fd5b5061045a6004803603604081101561032057600080fd5b810190808035906020019064010000000081111561033d57600080fd5b82018360208201111561034f57600080fd5b8035906020019184600183028401116401000000008311171561037157600080fd5b91908080601f016020809104026020016040519081016040528093929190818152602001838380828437600081840152601f19601f820116905080830192505050505050509192919290803590602001906401000000008111156103d457600080fd5b8201836020820111156103e657600080fd5b8035906020019184600183028401116401000000008311171561040857600080fd5b91908080601f016020809104026020016040519081016040528093929190818152602001838380828437600081840152601f19601f820116905080830192505050505050509192919290505050610c36565b005b6104663382610e0e565b151515610501576040517f08c379a00000000000000000000000000000000000000000000000000000000081526004018080602001828103825260248152602001807f5573657220616c726561647920766f74656420666f7220746869732070726f7081526020017f6f73616c0000000000000000000000000000000000000000000000000000000081525060400191505060405180910390fd5b600080828152602001908152602001600020600301600081548092919060010191905055506000808281526020019081526020016000206004013390806001815401808255809150509060018203906000526020600020016000909192909190916101000a81548173ffffffffffffffffffffffffffffffffffffffff021916908373ffffffffffffffffffffffffffffffffffffffff160217905550507ffd327cd78ce36f774fd1f80a272fba6f42ce45bc686a5b71fc080bdb66426f1e60008083815260200190815260200160002060000133600080858152602001908152602001600020600201546000808681526020019081526020016000206003015460405180806020018573ffffffffffffffffffffffffffffffffffffffff1673ffffffffffffffffffffffffffffffffffffffff1681526020018481526020018381526020018281038252868181546001816001161561010002031660029004815260200191508054600181600116156101000203166002900480156106c95780601f1061069e576101008083540402835291602001916106c9565b820191906000526020600020905b8154815290600101906020018083116106ac57829003601f168201915b50509550505050505060405180910390a150565b606080600080606060008060008881526020019081526020016000206000016000808981526020019081526020016000206001016000808a8152602001908152602001600020600201546000808b8152602001908152602001600020600301546000808c81526020019081526020016000206004016000808d815260200190815260200160002060050160009054906101000a900473ffffffffffffffffffffffffffffffffffffffff16858054600181600116156101000203166002900480601f01602080910402602001604051908101604052809291908181526020018280546001816001161561010002031660029004801561081d5780601f106107f25761010080835404028352916020019161081d565b820191906000526020600020905b81548152906001019060200180831161080057829003601f168201915b50505050509550848054600181600116156101000203166002900480601f0160208091040260200160405190810160405280929190818152602001828054600181600116156101000203166002900480156108b95780601f1061088e576101008083540402835291602001916108b9565b820191906000526020600020905b81548152906001019060200180831161089c57829003601f168201915b505050505094508180548060200260200160405190810160405280929190818152602001828054801561094157602002820191906000526020600020905b8160009054906101000a900473ffffffffffffffffffffffffffffffffffffffff1673ffffffffffffffffffffffffffffffffffffffff16815260200190600101908083116108f7575b5050505050915095509550955095509550955091939550919395565b606060028054806020026020016040519081016040528092919081815260200182805480156109ab57602002820191906000526020600020905b815481526020019060010190808311610997575b5050505050905090565b6109bf3382610e0e565b151515610a5a576040517f08c379a00000000000000000000000000000000000000000000000000000000081526004018080602001828103825260248152602001807f5573657220616c726561647920766f74656420666f7220746869732070726f7081526020017f6f73616c0000000000000000000000000000000000000000000000000000000081525060400191505060405180910390fd5b600080828152602001908152602001600020600201600081548092919060010191905055506000808281526020019081526020016000206004013390806001815401808255809150509060018203906000526020600020016000909192909190916101000a81548173ffffffffffffffffffffffffffffffffffffffff021916908373ffffffffffffffffffffffffffffffffffffffff160217905550507ffd327cd78ce36f774fd1f80a272fba6f42ce45bc686a5b71fc080bdb66426f1e60008083815260200190815260200160002060000133600080858152602001908152602001600020600201546000808681526020019081526020016000206003015460405180806020018573ffffffffffffffffffffffffffffffffffffffff1673ffffffffffffffffffffffffffffffffffffffff168152602001848152602001838152602001828103825286818154600181600116156101000203166002900481526020019150805460018160011615610100020316600290048015610c225780601f10610bf757610100808354040283529160200191610c22565b820191906000526020600020905b815481529060010190602001808311610c0557829003601f168201915b50509550505050505060405180910390a150565b60008251111515610caf576040517f08c379a00000000000000000000000000000000000000000000000000000000081526004018080602001828103825260148152602001807f4e616d652063616e6e6f7420626520656d70747900000000000000000000000081525060200191505060405180910390fd5b60008151111515610d28576040517f08c379a000000000000000000000000000000000000000000000000000000000815260040180806020018281038252601b8152602001807f4465736372697074696f6e2063616e6e6f7420626520656d707479000000000081525060200191505060405180910390fd5b60008060006001548152602001908152602001600020905082816000019080519060200190610d58929190610f2d565b5081816001019080519060200190610d71929190610f2d565b506000816002018190555060008160030181905550338160050160006101000a81548173ffffffffffffffffffffffffffffffffffffffff021916908373ffffffffffffffffffffffffffffffffffffffff16021790555060026001549080600181540180825580915050906001820390600052602060002001600090919290919091505550600160008154809291906001019190505550505050565b60006060600080848152602001908152602001600020600401805480602002602001604051908101604052809291908181526020018280548015610ea757602002820191906000526020600020905b8160009054906101000a900473ffffffffffffffffffffffffffffffffffffffff1673ffffffffffffffffffffffffffffffffffffffff1681526020019060010190808311610e5d575b5050505050905060008090505b8151811015610f20578473ffffffffffffffffffffffffffffffffffffffff168282815181101515610ee257fe5b9060200190602002015173ffffffffffffffffffffffffffffffffffffffff161415610f1357600192505050610f27565b8080600101915050610eb4565b5060009150505b92915050565b828054600181600116156101000203166002900490600052602060002090601f016020900481019282601f10610f6e57805160ff1916838001178555610f9c565b82800160010185558215610f9c579182015b82811115610f9b578251825591602001919060010190610f80565b5b509050610fa99190610fad565b5090565b610fcf91905b80821115610fcb576000816000905550600101610fb3565b5090565b9056fea165627a7a72305820b0bb66a1b5fda1cd7390fdd7b0bbf0f93bc5dd98b5d0fc33889a19d9b38d8ce40029",
  "source": "pragma solidity ^0.5.0;\n\ncontract Voting {\n    \n    event Voted(string proposalName, address user, uint positiveVotes, uint negativeVotes);\n    event NewProposal(string name, address user);\n    \n    mapping (uint => Proposal) proposalObj;\n    uint proposalId = 0;\n    uint[] proposals;\n    \n    struct Proposal {\n        string name;\n        string desc;\n        uint positiveVotes;\n        uint negativeVotes;\n        address[] voters;\n        address proposer;\n    }\n    \n    function newProposal(string memory _name, string memory _desc) public {\n        \n        require(bytes(_name).length > 0, \"Name cannot be empty\");\n        require(bytes(_desc).length > 0, \"Description cannot be empty\");\n        \n        Proposal storage prop = proposalObj[proposalId];\n        prop.name = _name;\n        prop.desc = _desc;\n        prop.positiveVotes = 0;\n        prop.negativeVotes = 0;\n        prop.proposer = msg.sender;\n        proposals.push(proposalId);\n        proposalId++;\n    }\n    \n    function getProposal(uint _proposalId) public view\n        returns(\n            string memory, \n            string memory, \n            uint, \n            uint, \n            address[] memory, \n            address\n        ) {\n \n            return (\n                proposalObj[_proposalId].name,\n                proposalObj[_proposalId].desc,\n                proposalObj[_proposalId].positiveVotes,\n                proposalObj[_proposalId].negativeVotes,\n                proposalObj[_proposalId].voters,\n                proposalObj[_proposalId].proposer\n            );\n    }\n    \n    function getAllProposals() public view returns(uint[] memory) {\n        return proposals;\n    }\n    \n    function votePositive(uint _proposalId) public {\n        \n        require(!checkAlreadyVoted(msg.sender, _proposalId), \"User already voted for this proposal\");\n        \n        proposalObj[_proposalId].positiveVotes++;\n        proposalObj[_proposalId].voters.push(msg.sender);\n        emit Voted(\n            proposalObj[_proposalId].name, \n            msg.sender,\n            proposalObj[_proposalId].positiveVotes,\n            proposalObj[_proposalId].negativeVotes\n        );\n    }\n    \n    function voteNegative(uint _proposalId) public {\n        \n        require(!checkAlreadyVoted(msg.sender, _proposalId), \"User already voted for this proposal\");\n        \n        proposalObj[_proposalId].negativeVotes++;\n        proposalObj[_proposalId].voters.push(msg.sender);\n        emit Voted(\n            proposalObj[_proposalId].name, \n            msg.sender,\n            proposalObj[_proposalId].positiveVotes,\n            proposalObj[_proposalId].negativeVotes\n        );\n    }\n \n    function checkAlreadyVoted(address voterAddress, uint _proposalId) internal view returns(bool) {\n \n        address[] memory voters = proposalObj[_proposalId].voters;\n \n        for (uint i = 0; i < voters.length; i++) {\n            if (voters[i] == voterAddress)\n                return true;\n        }\n \n        return false;\n    }\n}",
  "sourcePath": "C:/Users/lucas/Documents/dev/votingdapp/contracts/Voting.sol",
  "compiler": {
    "name": "solc",
    "version": "0.5.0+commit.1d4f565a.Emscripten.clang"
  },
  "schemaVersion": "3.0.1",
  "updatedAt": "2019-01-23T17:01:41.140Z",
  "devdoc": {
    "methods": {}
  },
  "userdoc": {
    "methods": {}
  }
}