{
  "contractName": "Voting",
  "abi": [
    {
      "constant": true,
      "inputs": [],
      "name": "proposalId",
      "outputs": [
        {
          "name": "",
          "type": "uint256"
        }
      ],
      "payable": false,
      "stateMutability": "view",
      "type": "function",
      "signature": "0x2dfca445"
    },
    {
      "anonymous": false,
      "inputs": [
        {
          "indexed": false,
          "name": "proposalId",
          "type": "uint256"
        },
        {
          "indexed": false,
          "name": "voter",
          "type": "address"
        },
        {
          "indexed": false,
          "name": "positiveVotes",
          "type": "uint256"
        },
        {
          "indexed": false,
          "name": "negativeVotes",
          "type": "uint256"
        }
      ],
      "name": "Voted",
      "type": "event",
      "signature": "0xb4c54afd73915f9f756c8dee39fe0b311937871a92261a47747f7a3d32f63a0c"
    },
    {
      "anonymous": false,
      "inputs": [
        {
          "indexed": false,
          "name": "proposalId",
          "type": "uint256"
        },
        {
          "indexed": false,
          "name": "proposalName",
          "type": "string"
        },
        {
          "indexed": false,
          "name": "proposalDesc",
          "type": "string"
        },
        {
          "indexed": false,
          "name": "positiveVotes",
          "type": "uint256"
        },
        {
          "indexed": false,
          "name": "negativeVotes",
          "type": "uint256"
        },
        {
          "indexed": false,
          "name": "voters",
          "type": "address[]"
        },
        {
          "indexed": false,
          "name": "proposer",
          "type": "address"
        }
      ],
      "name": "NewProposal",
      "type": "event",
      "signature": "0xe2ee39ff2cc2283933111c5bc3f7039c43deb7afdc941d3980248c0d263d2590"
    },
    {
      "anonymous": false,
      "inputs": [
        {
          "indexed": false,
          "name": "proposalId",
          "type": "uint256"
        }
      ],
      "name": "newProposalSaved",
      "type": "event",
      "signature": "0xd499a4bb853e8db304e63e54063cbd4978594a7c76d49dd425fd51e5c8ef2461"
    },
    {
      "anonymous": false,
      "inputs": [
        {
          "indexed": false,
          "name": "proposalId",
          "type": "uint256"
        }
      ],
      "name": "removeFromSaved",
      "type": "event",
      "signature": "0x955dbf52f783cf81c8d8795abeb32c320bf308915b073bdc99594d3692edd1d9"
    },
    {
      "constant": false,
      "inputs": [
        {
          "name": "_name",
          "type": "string"
        },
        {
          "name": "_desc",
          "type": "string"
        }
      ],
      "name": "newProposal",
      "outputs": [],
      "payable": false,
      "stateMutability": "nonpayable",
      "type": "function",
      "signature": "0xf5cbc8e4"
    },
    {
      "constant": true,
      "inputs": [
        {
          "name": "_proposalId",
          "type": "uint256"
        }
      ],
      "name": "getProposal",
      "outputs": [
        {
          "name": "",
          "type": "string"
        },
        {
          "name": "",
          "type": "string"
        },
        {
          "name": "",
          "type": "uint256"
        },
        {
          "name": "",
          "type": "uint256"
        },
        {
          "name": "",
          "type": "address[]"
        },
        {
          "name": "",
          "type": "address"
        }
      ],
      "payable": false,
      "stateMutability": "view",
      "type": "function",
      "signature": "0xc7f758a8"
    },
    {
      "constant": true,
      "inputs": [],
      "name": "getAllProposals",
      "outputs": [
        {
          "name": "",
          "type": "uint256[]"
        }
      ],
      "payable": false,
      "stateMutability": "view",
      "type": "function",
      "signature": "0xcceb68f5"
    },
    {
      "constant": false,
      "inputs": [
        {
          "name": "_proposalId",
          "type": "uint256"
        }
      ],
      "name": "votePositive",
      "outputs": [],
      "payable": false,
      "stateMutability": "nonpayable",
      "type": "function",
      "signature": "0xe5f74c25"
    },
    {
      "constant": false,
      "inputs": [
        {
          "name": "_proposalId",
          "type": "uint256"
        }
      ],
      "name": "voteNegative",
      "outputs": [],
      "payable": false,
      "stateMutability": "nonpayable",
      "type": "function",
      "signature": "0x548f72c8"
    },
    {
      "constant": true,
      "inputs": [],
      "name": "getMyProposals",
      "outputs": [
        {
          "name": "",
          "type": "uint256[]"
        }
      ],
      "payable": false,
      "stateMutability": "view",
      "type": "function",
      "signature": "0x36ffa905"
    }
  ],
  "bytecode": "0x6080604052600160025534801561001557600080fd5b50611289806100256000396000f3fe608060405260043610610083576000357c0100000000000000000000000000000000000000000000000000000000900463ffffffff1680632dfca4451461008857806336ffa905146100b3578063548f72c81461011f578063c7f758a81461015a578063cceb68f514610303578063e5f74c251461036f578063f5cbc8e4146103aa575b600080fd5b34801561009457600080fd5b5061009d610509565b6040518082815260200191505060405180910390f35b3480156100bf57600080fd5b506100c861050f565b6040518080602001828103825283818151815260200191508051906020019060200280838360005b8381101561010b5780820151818401526020810190506100f0565b505050509050019250505060405180910390f35b34801561012b57600080fd5b506101586004803603602081101561014257600080fd5b81019080803590602001909291905050506105a7565b005b34801561016657600080fd5b506101936004803603602081101561017d57600080fd5b8101908080359060200190929190505050610792565b604051808060200180602001878152602001868152602001806020018573ffffffffffffffffffffffffffffffffffffffff1673ffffffffffffffffffffffffffffffffffffffff16815260200184810384528a818151815260200191508051906020019080838360005b838110156102195780820151818401526020810190506101fe565b50505050905090810190601f1680156102465780820380516001836020036101000a031916815260200191505b50848103835289818151815260200191508051906020019080838360005b8381101561027f578082015181840152602081019050610264565b50505050905090810190601f1680156102ac5780820380516001836020036101000a031916815260200191505b50848103825286818151815260200191508051906020019060200280838360005b838110156102e85780820151818401526020810190506102cd565b50505050905001995050505050505050505060405180910390f35b34801561030f57600080fd5b50610318610a12565b6040518080602001828103825283818151815260200191508051906020019060200280838360005b8381101561035b578082015181840152602081019050610340565b505050509050019250505060405180910390f35b34801561037b57600080fd5b506103a86004803603602081101561039257600080fd5b8101908080359060200190929190505050610a6a565b005b3480156103b657600080fd5b50610507600480360360408110156103cd57600080fd5b81019080803590602001906401000000008111156103ea57600080fd5b8201836020820111156103fc57600080fd5b8035906020019184600183028401116401000000008311171561041e57600080fd5b91908080601f016020809104026020016040519081016040528093929190818152602001838380828437600081840152601f19601f8201169050808301925050505050505091929192908035906020019064010000000081111561048157600080fd5b82018360208201111561049357600080fd5b803590602001918460018302840111640100000000831117156104b557600080fd5b91908080601f016020809104026020016040519081016040528093929190818152602001838380828437600081840152601f19601f820116905080830192505050505050509192919290505050610c55565b005b60025481565b6060600160003373ffffffffffffffffffffffffffffffffffffffff1673ffffffffffffffffffffffffffffffffffffffff16815260200190815260200160002060000180548060200260200160405190810160405280929190818152602001828054801561059d57602002820191906000526020600020905b815481526020019060010190808311610589575b5050505050905090565b6105b13382611099565b15151561064c576040517f08c379a00000000000000000000000000000000000000000000000000000000081526004018080602001828103825260248152602001807f5573657220616c726561647920766f74656420666f7220746869732070726f7081526020017f6f73616c0000000000000000000000000000000000000000000000000000000081525060400191505060405180910390fd5b600080828152602001908152602001600020600301600081548092919060010191905055506000808281526020019081526020016000206004013390806001815401808255809150509060018203906000526020600020016000909192909190916101000a81548173ffffffffffffffffffffffffffffffffffffffff021916908373ffffffffffffffffffffffffffffffffffffffff160217905550507fb4c54afd73915f9f756c8dee39fe0b311937871a92261a47747f7a3d32f63a0c81336000808581526020019081526020016000206002015460008086815260200190815260200160002060030154604051808581526020018473ffffffffffffffffffffffffffffffffffffffff1673ffffffffffffffffffffffffffffffffffffffff16815260200183815260200182815260200194505050505060405180910390a150565b606080600080606060008060008881526020019081526020016000206000016000808981526020019081526020016000206001016000808a8152602001908152602001600020600201546000808b8152602001908152602001600020600301546000808c81526020019081526020016000206004016000808d815260200190815260200160002060050160009054906101000a900473ffffffffffffffffffffffffffffffffffffffff16858054600181600116156101000203166002900480601f0160208091040260200160405190810160405280929190818152602001828054600181600116156101000203166002900480156108d25780601f106108a7576101008083540402835291602001916108d2565b820191906000526020600020905b8154815290600101906020018083116108b557829003601f168201915b50505050509550848054600181600116156101000203166002900480601f01602080910402602001604051908101604052809291908181526020018280546001816001161561010002031660029004801561096e5780601f106109435761010080835404028352916020019161096e565b820191906000526020600020905b81548152906001019060200180831161095157829003601f168201915b50505050509450818054806020026020016040519081016040528092919081815260200182805480156109f657602002820191906000526020600020905b8160009054906101000a900473ffffffffffffffffffffffffffffffffffffffff1673ffffffffffffffffffffffffffffffffffffffff16815260200190600101908083116109ac575b5050505050915095509550955095509550955091939550919395565b60606003805480602002602001604051908101604052809291908181526020018280548015610a6057602002820191906000526020600020905b815481526020019060010190808311610a4c575b5050505050905090565b610a743382611099565b151515610b0f576040517f08c379a00000000000000000000000000000000000000000000000000000000081526004018080602001828103825260248152602001807f5573657220616c726561647920766f74656420666f7220746869732070726f7081526020017f6f73616c0000000000000000000000000000000000000000000000000000000081525060400191505060405180910390fd5b600080828152602001908152602001600020600201600081548092919060010191905055506000808281526020019081526020016000206004013390806001815401808255809150509060018203906000526020600020016000909192909190916101000a81548173ffffffffffffffffffffffffffffffffffffffff021916908373ffffffffffffffffffffffffffffffffffffffff160217905550507fb4c54afd73915f9f756c8dee39fe0b311937871a92261a47747f7a3d32f63a0c81336000808581526020019081526020016000206002015460008086815260200190815260200160002060030154604051808581526020018473ffffffffffffffffffffffffffffffffffffffff1673ffffffffffffffffffffffffffffffffffffffff16815260200183815260200182815260200194505050505060405180910390a150565b60008251111515610cce576040517f08c379a00000000000000000000000000000000000000000000000000000000081526004018080602001828103825260148152602001807f4e616d652063616e6e6f7420626520656d70747900000000000000000000000081525060200191505060405180910390fd5b60008151111515610d47576040517f08c379a000000000000000000000000000000000000000000000000000000000815260040180806020018281038252601b8152602001807f4465736372697074696f6e2063616e6e6f7420626520656d707479000000000081525060200191505060405180910390fd5b60008060006002548152602001908152602001600020905082816000019080519060200190610d779291906111b8565b5081816001019080519060200190610d909291906111b8565b506000816002018190555060008160030181905550338160050160006101000a81548173ffffffffffffffffffffffffffffffffffffffff021916908373ffffffffffffffffffffffffffffffffffffffff16021790555060036002549080600181540180825580915050906001820390600052602060002001600090919290919091505550600160003373ffffffffffffffffffffffffffffffffffffffff1673ffffffffffffffffffffffffffffffffffffffff16815260200190815260200160002060000160025490806001815401808255809150509060018203906000526020600020016000909192909190915055506002600081548092919060010191905055507fe2ee39ff2cc2283933111c5bc3f7039c43deb7afdc941d3980248c0d263d25906001600254038484600080866004018760050160009054906101000a900473ffffffffffffffffffffffffffffffffffffffff16604051808881526020018060200180602001878152602001868152602001806020018573ffffffffffffffffffffffffffffffffffffffff1673ffffffffffffffffffffffffffffffffffffffff16815260200184810384528a818151815260200191508051906020019080838360005b83811015610f77578082015181840152602081019050610f5c565b50505050905090810190601f168015610fa45780820380516001836020036101000a031916815260200191505b50848103835289818151815260200191508051906020019080838360005b83811015610fdd578082015181840152602081019050610fc2565b50505050905090810190601f16801561100a5780820380516001836020036101000a031916815260200191505b50848103825286818154815260200191508054801561107e57602002820191906000526020600020905b8160009054906101000a900473ffffffffffffffffffffffffffffffffffffffff1673ffffffffffffffffffffffffffffffffffffffff1681526020019060010190808311611034575b50509a505050505050505050505060405180910390a1505050565b6000606060008084815260200190815260200160002060040180548060200260200160405190810160405280929190818152602001828054801561113257602002820191906000526020600020905b8160009054906101000a900473ffffffffffffffffffffffffffffffffffffffff1673ffffffffffffffffffffffffffffffffffffffff16815260200190600101908083116110e8575b5050505050905060008090505b81518110156111ab578473ffffffffffffffffffffffffffffffffffffffff16828281518110151561116d57fe5b9060200190602002015173ffffffffffffffffffffffffffffffffffffffff16141561119e576001925050506111b2565b808060010191505061113f565b5060009150505b92915050565b828054600181600116156101000203166002900490600052602060002090601f016020900481019282601f106111f957805160ff1916838001178555611227565b82800160010185558215611227579182015b8281111561122657825182559160200191906001019061120b565b5b5090506112349190611238565b5090565b61125a91905b8082111561125657600081600090555060010161123e565b5090565b9056fea165627a7a72305820c108eeda3a0676134de4cfc2e2d6c3ad13e163a4feb314f30cdc22e1ec6a6e9c0029",
  "source": "pragma solidity ^0.5.0;\r\n\r\ncontract Voting {\r\n    \r\n    event Voted(\r\n        uint proposalId, \r\n        address voter, \r\n        uint positiveVotes, \r\n        uint negativeVotes\r\n    );\r\n\r\n    event NewProposal(\r\n        uint proposalId, \r\n        string proposalName, \r\n        string proposalDesc, \r\n        uint positiveVotes, \r\n        uint negativeVotes, \r\n        address[] voters, \r\n        address proposer\r\n    );\r\n\r\n    event newProposalSaved(uint proposalId);\r\n    event removeFromSaved(uint proposalId);\r\n    \r\n    mapping (uint => Proposal) proposalObj;\r\n    mapping (address => User) userObj;\r\n    \r\n    uint public proposalId = 1;\r\n    uint[] proposals;\r\n\r\n    struct User {\r\n        uint[] myProposals;\r\n    }\r\n    \r\n    struct Proposal {\r\n        string name;\r\n        string desc;\r\n        uint positiveVotes;\r\n        uint negativeVotes;\r\n        address[] voters;\r\n        address proposer;\r\n    }\r\n    \r\n    function newProposal(string memory _name, string memory _desc) public {\r\n        \r\n        require(bytes(_name).length > 0, \"Name cannot be empty\");\r\n        require(bytes(_desc).length > 0, \"Description cannot be empty\");\r\n        \r\n        Proposal storage prop = proposalObj[proposalId];\r\n        prop.name = _name;\r\n        prop.desc = _desc;\r\n        prop.positiveVotes = 0;\r\n        prop.negativeVotes = 0;\r\n        prop.proposer = msg.sender;\r\n        proposals.push(proposalId);\r\n        userObj[msg.sender].myProposals.push(proposalId);\r\n        proposalId++;\r\n        emit NewProposal(\r\n            proposalId-1,\r\n            _name,\r\n            _desc,\r\n            0,\r\n            0,\r\n            prop.voters,\r\n            prop.proposer\r\n        );\r\n    }\r\n    \r\n    function getProposal(uint _proposalId) public view\r\n        returns(\r\n            string memory, \r\n            string memory, \r\n            uint, \r\n            uint, \r\n            address[] memory, \r\n            address\r\n        ) {\r\n \r\n        return (\r\n            proposalObj[_proposalId].name,\r\n            proposalObj[_proposalId].desc,\r\n            proposalObj[_proposalId].positiveVotes,\r\n            proposalObj[_proposalId].negativeVotes,\r\n            proposalObj[_proposalId].voters,\r\n            proposalObj[_proposalId].proposer\r\n        );\r\n    }\r\n    \r\n    function getAllProposals() public view returns(uint[] memory) {\r\n        return proposals;\r\n    }\r\n    \r\n    function votePositive(uint _proposalId) public {\r\n        \r\n        require(!checkAlreadyVoted(msg.sender, _proposalId), \"User already voted for this proposal\");\r\n        \r\n        proposalObj[_proposalId].positiveVotes++;\r\n        proposalObj[_proposalId].voters.push(msg.sender);\r\n        emit Voted(\r\n            _proposalId, \r\n            msg.sender,\r\n            proposalObj[_proposalId].positiveVotes,\r\n            proposalObj[_proposalId].negativeVotes\r\n        );\r\n    }\r\n    \r\n    function voteNegative(uint _proposalId) public {\r\n        \r\n        require(!checkAlreadyVoted(msg.sender, _proposalId), \"User already voted for this proposal\");\r\n        \r\n        proposalObj[_proposalId].negativeVotes++;\r\n        proposalObj[_proposalId].voters.push(msg.sender);\r\n        emit Voted(\r\n            _proposalId, \r\n            msg.sender,\r\n            proposalObj[_proposalId].positiveVotes,\r\n            proposalObj[_proposalId].negativeVotes\r\n        );\r\n    }\r\n \r\n    function checkAlreadyVoted(address voterAddress, uint _proposalId) internal view returns(bool) {\r\n \r\n        address[] memory voters = proposalObj[_proposalId].voters;\r\n \r\n        for (uint i = 0; i < voters.length; i++) {\r\n            if (voters[i] == voterAddress)\r\n                return true;\r\n        }\r\n \r\n        return false;\r\n    }\r\n\r\n    function getMyProposals() public view returns (uint[] memory) {\r\n        return userObj[msg.sender].myProposals;\r\n    }\r\n}",
  "sourcePath": "C:/Users/lucas.vieira/Desktop/Projetos/voting-dapp/contracts/Voting.sol",
  "compiler": {
    "name": "solc",
    "version": "0.5.0+commit.1d4f565a.Emscripten.clang"
  },
  "schemaVersion": "3.0.1",
  "updatedAt": "2019-02-20T17:39:53.460Z",
  "devdoc": {
    "methods": {}
  },
  "userdoc": {
    "methods": {}
  }
}